S00D0000636463696F2E7372656315
S113000062C07CC0DDC2B3C1C3C1D3C1E3C1F3C10B
S113001003C213C223C233C243C253C263C273C2F4
S113002083C293C2A3C20902430002010000320941
S1130030040000010202010005240010010424024E
S113004002052406000105240103010705830308B2
S113005000FF09040100020A00000007050102086C
S11300600000070581020800006364632D696F00C6
S113007050494E0044445200504F52540012011053
S11300800102000008C016E1050001010200011090
S1130090035500530042002D00500049004F002238
S11300A0037700770077002E007200650063007507
S11300B0007200730069006F006E002E006A007009
S11300C000040309040011241FBECFE5D4E0DEBF01
S11300D0CDBF10E0A0E6B0E0EEE7FCE002C0059082
S11300E00D92AC36B107D9F711E0ACE6B0E001C02F
S11300F01D92AA3CB107E1F707D5BFC581CF909106
S11301008100E2E8F0E0E90FF11D80839F5F9093A6
S113011081000895FC018381813049F48DE790E0EA
S11301209093A3018093A20180917D00089586E2BB
S113013090E09093A3018093A20183E40895FC01CD
S11301408081982F9076903299F49181292F2052B2
S1130150223080F0923239F490916C00992319F492
S113016092E090936C0087FD07C081E080936D005E
S113017080E008958FEF089580E00895FC01AEE6D5
S1130180B0E087E00D9001928150E1F787E0089597
S1130190AEE6B0E0FC0187E001900D928150E1F7FA
S11301A081E00895EF92FF920F931F93CF93DF9313
S11301B07C01162F8FEF8093A40100E2F701819157
S11301C07F01E091750081327CF0982F91569A312D
S11301D008F48052AE2FB0E0AA58BF4F8C93EF5F63
S11301E0E770E0937500B7C0EE2309F4B4C0E130C2
S11301F009F059C0E0917E00F0E0809176008F33E1
S1130200E1F0803444F4863299F18D3331F1843253
S113021009F042C026C08E35B9F18C3779F18034AB
S113022009F03AC002C06BDF02C0C9E6D0E0FE01AB
S1130230219684918823B9F731C0C0818C2F82958F
S11302408F708A3008F0895F805D59DF8C2F8F7042
S11302508A3008F0895F805D20C0F89480917F0027
S113026018C0F89480917F0080838091800011C031
S1130270F894808190917F0089230BC0F894808149
S113028090917F00892B05C0F894808190917F0024
S113029089278083789402C081E231DF8DE02FDFEB
S11302A08AE02DDF56C0E230E9F480917F0080932C
S11302B0800080917E0080937F0090917600892F4A
S11302C080538A3008F08750282F2295207F909100
S11302D07700892F80538A3008F08750822B8093CF
S11302E07E0037C0E430B8F180917F0080938000B5
S11302F080917E0080937F00E150E0937500F0E0F0
S1130300EA58FF4F8081C82FCC0FC80FC1958C2F9E
S1130310845080937E00108286E790E060E770E06E
S1130320A3D40097B1F086E790E064E770E09CD432
S1130330009711F4C35008C086E790E068E770E0C6
S113034093D4009721F4C250C0937E0002C000935E
S11303507E0010927500115009F030CF1092A40164
S1130360DF91CF911F910F91FF90EF9008951F920D
S11303700F920FB60F9211248F93809182018061A6
S1130380809382018F910F900FBE0F901F9018954C
S11303901F920F920FB60F9211248F9380918201B6
S11303A08062809382018F910F900FBE0F901F90F7
S11303B018951F920F920FB60F9211248F9380916C
S11303C082018064809382018F910F900FBE0F9001
S11303D01F9018951F920F920FB60F9211248F93AE
S11303E0809182018068809382018F910F900FBE6B
S11303F00F901F9018951F920F920FB60F92112411
S11304008F93809183018160809383018F910F90FA
S11304100FBE0F901F9018951F920F920FB60F9258
S113042011248F93809183018260809383018F9143
S11304300F900FBE0F901F9018951F920F920FB63A
S11304400F9211248F9380918301846080938301A0
S11304508F910F900FBE0F901F9018951F920F92BF
S11304600FB60F9211248F9380918301886080933B
S113047083018F910F900FBE0F901F9018951F92BC
S11304800F920FB60F9211248F9380918301806194
S1130490809383018F910F900FBE0F901F9018953A
S11304A01F920F920FB60F9211248F9380918301A4
S11304B08062809383018F910F900FBE0F901F90E5
S11304C018951F920F920FB60F9211248F9380915B
S11304D083018064809383018F910F900FBE0F90EE
S11304E01F9018951F920F920FB60F9211248F939D
S11304F0809183018068809383018F910F900FBE58
S11305000F901F9018951F920F920FB60F921124FF
S11305108F93809184018160809384018F910F90E7
S11305200FBE0F901F9018951F920F920FB60F9247
S113053011248F93809184018260809384018F9130
S11305400F900FBE0F901F9018951F920F920FB629
S11305500F9211248F93809184018460809384018D
S11305608F910F900FBE0F901F9018951F920F92AE
S11305700FB60F9211248F93809184018860809329
S113058084018F910F900FBE0F901F901895A82F84
S1130590B92F80E090E041E050EA609530E009C076
S11305A02D9182279795879510F084279527305EA3
S11305B0C8F36F5FA8F30895EADF8D939D930895C0
S11305C0CF93CFB7CF93C395839BE9F7839B09C0A0
S11305D0839B07C0839B05C0839B03C0839B01C08F
S11305E0A6C0DF93C091A101DD27C855DE4F839BD0
S11305F002C0DF91EBCF2F930F931F9300B32FEF24
S113060003FB20F94F933F9310B34FEF012703FBF4
S113061021F93BE031C04E7F012F10B3216028C087
S1130620102F4D7F2260000000B329C04B7F24604F
S1130630012F000010B32BC010B3477F28602AC0DD
S11306404F7E00B320612CC04F7D10B320622FC0B9
S11306504F7B00B3206432C0422700B349934FEF6D
S11306600000102713FB20F910B31C70C9F1297F77
S113067091F2012703FB21F900B3237F89F2315062
S113068058F1102713FB22F910B3277E79F20127C2
S113069003FB23F92F7C81F200B3102713FB24F909
S11306A02F7971F200C010B3012703FB25F92F73D2
S11306B059F200C000B3102713FB26F9223040F290
S11306C000C010B3012703FB27F9243028F64F7725
S11306D0206810B30000F9CF10E81ABF00271CC02F
S11306E03B503195C31BD04010E81ABF0881033C2E
S11306F011F10B3401F120919F011981110F121393
S1130700EDCF4A81441F093659F10D3211F0013EF3
S113071029F74F7009F0042F0093A6013F914F91E0
S11307201F910F912F91DF91CAB7C7FD4CCFCF9185
S1130730CFBFCF9118952091A601222379F3109170
S1130740A4011123C1F53430C2F13093A4012093E4
S1130750A0011091A1013BE0311B3093A1012DC0F8
S11307600091A40101303CF50AE54F7049F4309141
S11307706A0034FD24C000936A00C8E8D1E023C0B5
S1130780433049F03091930134FD19C00093930133
S1130790C4E9D1E018C03091BE0134FD10C000930B
S11307A0BE01CFEBD1E00FC02795A8F45150A9F4B6
S11307B0220F0000F9CF4AE503C042ED01C0432FE8
S11307C0C4E1D0E032E011B31C60939A11BB02B3D0
S11307D020E41CE05F93012756E002BB279520F438
S11307E0515021F4220FF9CF012756E000003B5A63
S11307F002BBD0F2279528F4515029F4220F0000AF
S1130800F9CF012756E0279502BB20F4515021F47B
S1130810220FF9CF012756E02991332302BB21F699
S1130820037F1091A501110FC651D04002BB11F0F6
S113083010939F0110E81ABF086011B3137F402F73
S1130840437F5F9100C000C002BB11BB42BB66CFB7
S11308501F93CF93DF93162FEA01288124FF05C04D
S1130860298138E82327298302C02AE528839E01A9
S11308702E5F3F4F412FFC01D90181918D9341504F
S11308801416DCF3C901612F97DE1C5F1883DF9116
S1130890CF911F91089543E951E0DADF08954EEBBB
S11308A051E0D6DF0895CF93DF936091A4016350A4
S11308B067FDB4C08091A101CCE0D0E0C81BD10990
S11308C0C855DE4F8091A001803118F4CE016ADC56
S11308D09FC08D3209F08CC0683009F099C083EC58
S11308E0809388018AE580936A0010928701888149
S11308F0807619F0CE0123DC68C09A8110929101B0
S11309008981882331F41092920121E931E082E057
S113091057C0853019F49093A5014FC08630A9F5CE
S11309208B81813041F48DE790E09093A301809313
S1130930A20182E126C0823019F4CE01EBDB21C092
S11309408330F1F4992341F481EC90E09093A30176
S11309508093A20184E015C0913041F48FE990E0C6
S11309609093A3018093A20182E20BC0923041F4E0
S11309708FE890E09093A3018093A20180E101C0ED
S113098080E090E49093870120C0883079F089302A
S113099019F49093A70111C08A3059F08B3069F48F
S11309A08BE4809394018093BF0107C027EA31E070
S11309B002C021E931E081E003C021E931E080E0B7
S11309C03093A3012093A20109C08F3F39F4988189
S11309D097FD8E8190E89093870107C09F819923AA
S11309E021F49E81981708F4892F80936B0010C01E
S11309F08091870187FF0CC0CE01CADB8F3F21F4B1
S1130A008EE180936A0004C0882311F010926B0079
S1130A108091A401181614F41092A40180916A0024
S1130A2084FF54C080916B008F3F09F44FC0C82FDE
S1130A30893008F0C8E08C1B80936B00809188019A
S1130A4098E8892780938801CC2379F12091870144
S1130A5027FF08C089E891E06C2F90DBC82F89300C
S1130A6078F523C08091A2019091A30126FF0AC0CA
S1130A70FC012C2FA9E8B1E034913D93319621502B
S1130A80D9F708C0DC012C2FE9E8F1E03D9131935E
S1130A902150E1F72C2F215030E02F5F3F4F280FDA
S1130AA0391F3093A3012093A20189E891E06C2FB0
S1130AB083DDCC5FCC3041F08FEF80936B0004C0BA
S1130AC08FEF80936B00CEE1C0936A0084E190B312
S1130AD0987131F48150D9F71092A50110929F01B9
S1130AE0DF91CF91089585B78C6085BF8BB78068FF
S1130AF08BBF8BE4809394018093BF018AE580933C
S1130B0093018093BE0108952EE088E190E00FB632
S1130B10F894A89581BD0FBE21BD87EE82BB88E104
S1130B2081BB84E1A895E7ECFFEA3197F1F700C0B7
S1130B3000008150B9F711BAD6DF10926C00109200
S1130B406D001092750010928100109286017894C5
S1130B5001E010E0A895A7DE8091930184FF2AC0EC
S1130B60C091810080918601C81729F490916D008D
S1130B70992319F41FC0C81710F0C81B02C0C82F4E
S1130B80C195C93008F0C8E090E08E579F4F6C2F94
S1130B9082DE209186012C0F20938601C83031F427
S1130BA081E090E030918100321711F080E090E014
S1130BB080936D00C4E09C2F969596959695E92FA9
S1130BC0F0E0EE57FE4F8081882331F4C92FCC0F1B
S1130BD0CC0FCC0FC95F2BC04C2F50E04770507026
S1130BE0282F30E0042E02C0359527950A94E2F7A9
S1130BF020FF1DC0980102C0220F331F4A95E2F75F
S1130C00A9014095482340838CE579DA8C2F82959D
S1130C108F70805D74DA8C2F8F708A3008F0895F52
S1130C20805D6DDA8DE06BDA8AE069DA04C0CF5F4B
S1130C30C43108F4C0CF80916C00882309F48ACFB2
S1130C409091BE0194FF86CF823021F480E690E03B
S1130C5068E003C088E690E062E021DE80916C00E9
S1130C60815080936C0076CFFB01DC018D9105905F
S1110C7080190110D9F3990B0895F894FFCF61
S10F0C7EA12000000000020003005AFF47
S9030000FC
