:100000000C9484000C9424060C94A1000C94D7004A
:100010000C94E8000C94F9000C940A010C941B0158
:100020000C942C010C943D010C944E010C945F0136
:100030000C9470010C9481010C9492010C94A30116
:100040000C94B4010C94C5010C94D6010C94E701F6
:100050000C94F8010C9409020C941A020C942B02D3
:100060000C943C020C944D02504F525400444452A4
:100070000050494E006364632D696F00090243001C
:10008000020100803209040000010202010005247F
:1000900000100104240202052406000105240103C6
:1000A00001070583030800FF09040100020A00009C
:1000B000000705010208000007058102080000048E
:1000C00003090422037700770077002E0072006591
:1000D00000630075007200730069006F006E002EEF
:1000E000006A00700010035500530042002D0050BC
:1000F0000049004F001201100102000008C016E183
:10010000050001010200010011241FBECFEFD4E061
:10011000DEBFCDBF11E0A0E0B1E0EEEEFEE002C038
:1001200005900D92AC30B107D9F712E0ACE0B1E028
:1001300001C01D92AA36B107E1F70E945E020C943D
:1001400075070C940000FC018381813049F485EF30
:1001500090E090934302809342028091F5000895CD
:100160008CE790E0909343028093420283E40895E9
:10017000FC012081822F80768032B9F49181892F11
:100180008052823010F48FEF0895923239F48091CA
:100190001401882319F482E08093140127FD05C01F
:1001A00081E08093130180E0089580E008951F921C
:1001B0000F920FB60F9211248F93809123028061CA
:1001C000809323028F910F900FBE0F901F90189570
:1001D0001F920F920FB60F9211248F9380912302DA
:1001E0008062809323028F910F900FBE0F901F901B
:1001F00018951F920F920FB60F9211248F93809132
:1002000023028064809323028F910F900FBE0F9082
:100210001F9018951F920F920FB60F9211248F9373
:10022000809123028068809323028F910F900FBEEC
:100230000F901F9018951F920F920FB60F921124D6
:100240008F93809124028160809324028F910F907C
:100250000FBE0F901F9018951F920F920FB60F921E
:1002600011248F93809124028260809324028F91C5
:100270000F900FBE0F901F9018951F920F920FB600
:100280000F9211248F938091240284608093240222
:100290008F910F900FBE0F901F9018951F920F9285
:1002A0000FB60F9211248F9380912402886080935F
:1002B00024028F910F900FBE0F901F9018951F92E0
:1002C0000F920FB60F9211248F93809124028061B8
:1002D000809324028F910F900FBE0F901F9018955E
:1002E0001F920F920FB60F9211248F9380912402C8
:1002F0008062809324028F910F900FBE0F901F9009
:1003000018951F920F920FB60F9211248F93809120
:1003100024028064809324028F910F900FBE0F906F
:100320001F9018951F920F920FB60F9211248F9362
:10033000809124028068809324028F910F900FBED9
:100340000F901F9018951F920F920FB60F921124C5
:100350008F93809125028160809325028F910F9069
:100360000FBE0F901F9018951F920F920FB60F920D
:1003700011248F93809125028260809325028F91B2
:100380000F900FBE0F901F9018951F920F920FB6EF
:100390000F9211248F93809125028460809325020F
:1003A0008F910F900FBE0F901F9018951F920F9274
:1003B0000FB60F9211248F9380912502886080934D
:1003C00025028F910F900FBE0F901F9018951F92CE
:1003D0000F920FB60F9211248F93809125028061A6
:1003E000809325028F910F900FBE0F901F9018954C
:1003F0001F920F920FB60F9211248F9380912502B6
:100400008062809325028F910F900FBE0F901F90F6
:1004100018951F920F920FB60F9211248F9380910F
:1004200025028064809325028F910F900FBE0F905C
:100430001F9018951F920F920FB60F9211248F9351
:10044000809125028068809325028F910F900FBEC6
:100450000F901F9018951F920F920FB60F921124B4
:100460008F93809126028160809326028F910F9056
:100470000FBE0F901F9018951F920F920FB60F92FC
:1004800011248F93809126028260809326028F919F
:100490000F900FBE0F901F9018951F920F920FB6DE
:1004A0000F9211248F9380912602846080932602FC
:1004B0008F910F900FBE0F901F901895DF92EF92C3
:1004C000FF920F931F93CF93DF932EE088E190E08C
:1004D0000FB6F894A895809360000FBE209360003B
:1004E00083EF8BB98CE08AB920E048EC5FEAA895ED
:1004F000CA010197F1F72F5F2431C9F71AB80E949A
:100500008A04109214011092130110921801109293
:10051000190110921A017894DD24D394C1E0D0E03F
:100520009CE5F92E8DE0E82E0AE0A8950E94E104F2
:100530008091330284FF30C02091190190911A01FB
:10054000291729F480911301882319F425C029174C
:1005500018F0622F691B02C0692F6195162F693050
:1005600008F018E0892F90E08D5D9E4F612F0E946A
:10057000BE0420911A01210F20931A01183019F09E
:1005800080E090E007C090E080911901821391E033
:100590009D25892F8093130144E0842F86958695AD
:1005A0008695E82FF0E0ED5DFD4F5081552331F445
:1005B000482F440F440F440F495F47C0242F30E0B9
:1005C00027703070852F90E0022E02C09595879598
:1005D0000A94E2F780FF39C0CE0102C0880F991F4C
:1005E0002A95E2F780958523808380911901E82F71
:1005F000F0E0ED5DFE4FF0828F5F942F92959F703B
:100600009A3008F0995FE82FF0E0ED5DFE4F905DC5
:1006100090838F5F942F9F709A3008F0995FE82F36
:10062000F0E0ED5DFE4F905D90838F5FE82FF0E08E
:10063000ED5DFE4FE0828F5FE82FF0E0ED5DFE4F55
:1006400000838F5F8093190104C04F5F4B3108F422
:10065000A4CF90911401992309F467CF80915E0291
:1006600084FF63CF923021F480E091E068E003C022
:1006700088E091E062E00E949B0480911401815027
:100680008093140152CFAF92BF92CF92DF92EF923C
:10069000FF920F931F93CF93DF937C01062F8FEF71
:1006A0008093440250E2C52E4DE0B42E3AE0A32ED2
:1006B00021E2D22EF70191917F0191328CF0892FA6
:1006C00081568A3108F4905280911801E82FF0E0A9
:1006D000E55EFE4F90838F5F877080931801F6C0B0
:1006E000E0911801EE2309F4F1C0E13009F092C065
:1006F00080911501E82FF0E080911B018F3341F1CB
:10070000803454F4863209F452C08D3309F440C069
:10071000843209F064C042C08E3509F458C08C3769
:1007200009F44DC0803409F05AC02091190185E7C1
:1007300090E006C0E22FF0E0ED5DFE4F30832F5FCA
:10074000FC01019634913323A9F72093190151C07C
:100750002081922F92959F709A3008F0995F809136
:100760001901E82FF0E0ED5DFE4F905D9083982F2A
:100770009F5F822F8F708A3008F0895FE92FF0E049
:10078000ED5DFE4F805D80839F5F9093190131C0C6
:10079000F89480911601808378942BC0F89480910E
:1007A00016018083809117018083789422C0F89489
:1007B0008081909116018923808378941AC0F894DF
:1007C000808190911601892B8083789412C0F894CF
:1007D0008081909116018927808378940AC0809146
:1007E0001901E82FF0E0ED5DFE4FD0828F5F80931E
:1007F000190180911901E82FF0E0ED5DFE4FB08204
:100800008F5FE82FF0E0ED5DFE4FA0828F5F809359
:1008100019015AC0E230D1F480911601809317017A
:10082000809115018093160190911B01892F8053AF
:100830008A3008F0875020911C01922F90539A30F3
:1008400008F097508295807F892B39C0E430F0F111
:1008500080911601809317018091150180931601F4
:10086000E150E0931801F0E0E55EFE4F808123E067
:100870008202E0011124CE01835A80931501108277
:100880008BE191E061E770E00E946C07892BE1F059
:100890008BE191E06DE670E00E946C07892B21F4FA
:1008A000FE01E25A8E2F0BC08BE191E068E670E00A
:1008B0000E946C07892B31F49E01215A822F80936C
:1008C000150102C0C092150110921801015009F0E3
:1008D000F1CE10924402DF91CF911F910F91FF90C2
:1008E000EF90DF90CF90BF90AF900895ACE0B1E073
:1008F000FC0187E001900D928150E1F781E00895BD
:10090000DC01ECE0F1E087E001900D928150E1F72D
:1009100087E00895E9E6F0E0808182608083E89ACC
:100920008BE48093340280935F028AE580933302E4
:1009300080935E0208951F93DC01162F80915E0262
:1009400084FF07C080915F0298E8892780935F0247
:1009500003C08AE580935E02912FE0E6F2E08D917C
:10096000819391501916DCF380E692E0612F0E948A
:1009700020061C5F10935E021F9108951F93DC01F7
:10098000162F8091330284FF07C08091340298E8CB
:1009900089278093340203C08AE580933302912F24
:1009A000E5E3F2E08D91819391501916DCF385E334
:1009B00092E0612F0E9420061C5F109333021F916A
:1009C00008951F93CF93DF9360914402635067FDB6
:1009D000B6C080914102CCE0D0E0C81BD109C85B11
:1009E000DD4F80914002803120F4CE010E9443030C
:1009F000A0C08D3209F08CC0683009F09AC083EC39
:100A0000809328028AE580930A0110922702888148
:100A1000807629F0CE010E94B800282F66C09A8106
:100A2000109231028981882321F41092320222E04F
:100A300055C0853019F4909345024FC08630B9F502
:100A40008B81813041F485EF90E090934302809355
:100A5000420222E128C0823029F4CE010E94A30084
:100A6000282F21C08330F1F4992341F48FEB90E0DB
:100A7000909343028093420224E015C0913041F4E8
:100A800083EC90E0909343028093420222E20BC0F9
:100A9000923041F485EE90E09093430280934202BD
:100AA00020E101C020E080E4809327021EC088304E
:100AB00021F421E087E492E013C0893019F4909387
:100AC00047020BC08A3011F421E008C08B3029F4B2
:100AD0008BE48093340280935F0220E081E392E014
:100AE000909343028093420209C02F3F39F48881DA
:100AF00087FD2E8180E88093270206C08F8188239E
:100B000019F48E81821708F0822F80930B0111C097
:100B10008091270287FF0DC0CE010E9476048F3F8F
:100B200021F48EE180930A0104C0882311F0109211
:100B30000B0180914402181614F410924402809123
:100B40000A0184FF5AC080910B018F3F09F455C000
:100B5000182F893008F018E0811B80930B018091D9
:100B6000280298E8892780932802112399F180911F
:100B7000270287FF09C089E292E0612F0E9480046A
:100B8000182F8930A0F526C02091420230914302EF
:100B900086FF0DC0A9E2B2E080E090E0F901E80F25
:100BA000F91FE491ED9301961817C1F708C0912F32
:100BB000D901E9E2F2E08D9181939150E1F7115072
:100BC000812F90E01F5F0196820F931F9093430245
:100BD0008093420289E292E0612F0E942006612FF9
:100BE0006C5F6C3041F08FEF80930B0104C08FEF8E
:100BF00080930B016EE160930A0194E189B18C70DE
:100C000031F49150D9F71092450210923F02DF91D2
:100C1000CF911F910895A82FB92F80E090E041E077
:100C200050EA60956F5F58F42D9138EF82279795C1
:100C3000879510F0842795273F5FC8F3F3CF089579
:100C4000EADF8D939D930895CF93CFB7CF93C3954C
:100C50004B9BE9F74B9B09C04B9B07C04B9B05C0C7
:100C60004B9B03C04B9B01C0A6C0DF93C0914102C8
:100C7000DD27C85BDD4F4B9B02C0DF91EBCF2F938D
:100C80000F931F9309B12FEF03FB20F94F933F936D
:100C900019B14FEF012703FB21F93BE031C04E7F33
:100CA000012F19B1216028C0102F4D7F2260000054
:100CB00009B129C04B7F2460012F000019B12BC05E
:100CC00019B1477F28602AC04F7E09B120612CC02E
:100CD0004F7D19B120622FC04F7B09B1206432C013
:100CE000422709B149934FEF0000102713FB20F969
:100CF00019B11C70C9F1297F91F2012703FB21F979
:100D000009B1237F89F2315058F1102713FB22F9E2
:100D100019B1277E79F2012703FB23F92F7C81F299
:100D200009B1102713FB24F92F7971F200C019B112
:100D3000012703FB25F92F7359F200C009B11027D1
:100D400013FB26F9223040F200C019B1012703FB42
:100D500027F9243028F64F77206819B10000F9CF21
:100D600011E01CBB00271CC03B503195C31BD04079
:100D700011E01CBB0881033C11F10B3401F12091FF
:100D80003F021981110F1213EDCF4A81441F09361A
:100D900059F10D3211F0013E29F74F7009F0042F7F
:100DA000009346023F914F911F910F912F91DF9138
:100DB000CCB3C0FD4CCFCF91CFBFCF911895209130
:100DC0004602222379F3109144021123C1F53430F5
:100DD000C2F13093440220934002109141023BE063
:100DE000311B309341022DC00091440201303CF58B
:100DF0000AE54F7049F430910A0134FD24C0009394
:100E00000A01C8E2D2E023C0433049F030913302F6
:100E100034FD19C000933302C4E3D2E018C030910E
:100E20005E0234FD10C000935E02CFE5D2E00FC039
:100E30002795A8F45150A9F4220F0000F9CF4AE5F4
:100E400003C042ED01C0432FC4E1D0E032E01AB14B
:100E50001C605B9A1AB90BB120E41CE05F93012778
:100E600056E00BB9279520F4515021F4220FF9CF09
:100E7000012756E000003B5A0BB9D0F2279528F421
:100E8000515029F4220F0000F9CF012756E0279591
:100E90000BB920F4515021F4220FF9CF012756E06D
:100EA000299133230BB921F6037F10914502110FCD
:100EB000C651D0400BB911F010933F0211E01CBB9A
:100EC00008601AB1137F402F437F5F9100C000C0BC
:100ED0000BB91AB94BB966CFFB01DC018D910590B6
:0E0EE00080190110D9F3990B0895F894FFCFF3
:0C0EEE00A12000000000020003005AFFD9
:00000001FF
