:1000000062C086C57BC0AFC0BFC0CFC0DFC0EFC07D
:10001000FFC00FC11FC12FC13FC14FC15FC16FC121
:100020007FC18FC19FC1504F525400444452005071
:10003000494E006364632D696F00090243000201A9
:1000400000803209040000010202010005240010B2
:10005000010424020205240600010524010301070E
:100060000583030800FF09040100020A00000007DD
:1000700005010208000007058102080000040309C9
:100080000422037700770077002E0072006500637A
:100090000075007200730069006F006E002E006A28
:1000A00000700010035500530042002D005000491D
:1000B000004F001201100102000008C016E1050007
:1000C00001010200010011241FBECFE5D4E0DEBF14
:1000D000CDBF10E0A0E6B0E0E6EBFDE002C0059089
:1000E0000D92AC36B107D9F711E0ACE6B0E001C033
:1000F0001D92AA3CB107E1F746D15BC681CFFC0156
:100100008381813049F483EB90E09093A301809345
:10011000A2018091B30008958AE390E09093A30137
:100120008093A20183E40895FC012081822F8076D0
:100130008032B9F49181892F8052823010F48FEF90
:100140000895923239F480917400882319F482E082
:100150008093740027FD05C081E08093730080E0E8
:10016000089580E008951F920F920FB60F92112408
:100170008F93809183018061809383018F910F9091
:100180000FBE0F901F9018951F920F920FB60F92EF
:1001900011248F93809183018062809383018F91DA
:1001A0000F900FBE0F901F9018951F920F920FB6D1
:1001B0000F9211248F938091830180648093830137
:1001C0008F910F900FBE0F901F9018951F920F9256
:1001D0000FB60F9211248F938091830180688093D2
:1001E00083018F910F900FBE0F901F9018951F9253
:1001F0000F920FB60F9211248F938091840181602A
:10020000809384018F910F900FBE0F901F901895CF
:100210001F920F920FB60F9211248F938091840139
:100220008260809384018F910F900FBE0F901F907A
:1002300018951F920F920FB60F9211248F938091F1
:1002400084018460809384018F910F900FBE0F9082
:100250001F9018951F920F920FB60F9211248F9333
:10026000809184018860809384018F910F900FBEEC
:100270000F901F9018951F920F920FB60F92112496
:100280008F93809184018061809384018F910F907E
:100290000FBE0F901F9018951F920F920FB60F92DE
:1002A00011248F93809184018062809384018F91C7
:1002B0000F900FBE0F901F9018951F920F920FB6C0
:1002C0000F9211248F938091840180648093840124
:1002D0008F910F900FBE0F901F9018951F920F9245
:1002E0000FB60F9211248F938091840180688093C0
:1002F00084018F910F900FBE0F901F9018951F9241
:100300000F920FB60F9211248F9380918501816017
:10031000809385018F910F900FBE0F901F901895BD
:100320001F920F920FB60F9211248F938091850127
:100330008260809385018F910F900FBE0F901F9068
:1003400018951F920F920FB60F9211248F938091E0
:1003500085018460809385018F910F900FBE0F906F
:100360001F9018951F920F920FB60F9211248F9322
:10037000809185018860809385018F910F900FBED9
:100380000F901F901895DF92EF92FF920F931F939B
:10039000CF93DF932EE088E190E00FB6F894A89514
:1003A00081BD0FBE21BD83EF82BB8CE081BB20E00D
:1003B00048EC5FEAA895CA010197F1F72F5F243155
:1003C000C9F711BA13D210927400109273001092F0
:1003D00078001092790010927A007894DD24D394FA
:1003E000C1E0D0E09CE5F92E8DE0E82E0AE0A8956A
:1003F00052D28091930184FF2FC020917900909177
:100400007A00291729F480917300882319F424C0F5
:10041000291718F0622F691B02C0692F6195162FEA
:10042000693008F018E0892F90E08D579F4F612FB9
:1004300010D220917A00210F20937A00183019F001
:1004400080E090E007C090E080917900821391E015
:100450009D25892F8093730044E0842F869586958F
:100460008695E82FF0E0ED57FE4F5081552331F48B
:10047000482F440F440F440F495F47C0242F30E0FA
:1004800027703070852F90E0022E02C095958795D9
:100490000A94E2F780FF39C0CE0102C0880F991F8D
:1004A0002A95E2F780958523808380917900E82F53
:1004B000F0E0ED57FF4FF0828F5F942F92959F7081
:1004C0009A3008F0995FE82FF0E0ED57FF4F905D0C
:1004D00090838F5F942F9F709A3008F0995FE82F78
:1004E000F0E0ED57FF4F905D90838F5FE82FF0E0D5
:1004F000ED57FF4FE0828F5FE82FF0E0ED57FF4FA1
:1005000000838F5F8093790004C04F5F443108F40B
:10051000A4CF90917400992309F469CF8091BE0112
:1005200084FF65CF923021F480E690E068E003C05C
:1005300088E690E062E06BD18091740081508093F6
:10054000740055CF8F929F92AF92BF92CF92DF925D
:10055000EF92FF920F931F93CF93DF937C01062FAF
:100560008FEF8093A40174E4C72ED12C60E2962E05
:100570005DE0852E4AE0B42E31E2A32EF701919181
:100580007F0191328CF0892F81568A3108F4905284
:1005900080917800E82FF0E0E558FF4F90838F5F5F
:1005A000877080937800FCC0E0917800EE2309F416
:1005B000F7C0E13009F092C080917500E82FF0E0BB
:1005C00080917B008F3341F1803454F4863209F4FA
:1005D00052C08D3309F440C0843209F064C042C077
:1005E0008E3509F458C08C3709F44DC0803409F0B9
:1005F0005AC02091790083E390E006C0E22FF0E03A
:10060000ED57FF4F30832F5FFC0101963491332368
:10061000A9F72093790051C02081922F92959F7065
:100620009A3008F0995F80917900E82FF0E0ED575B
:10063000FF4F905D9083982F9F5F822F8F708A303D
:1006400008F0895FE92FF0E0ED57FF4F805D808370
:100650009F5F9093790031C0F894809176008083F9
:1006600078942BC0F89480917600808380917700F5
:100670008083789422C0F8948081909176008923B9
:10068000808378941AC0F894808190917600892BA9
:100690008083789412C0F8948081909176008927A5
:1006A000808378940AC080917900E82FF0E0ED57BC
:1006B000FF4FA0828F5F8093790080917900E82FAF
:1006C000F0E0ED57FF4F80828F5FE82FF0E0ED57AD
:1006D000FF4FB0828F5F8093790060C0E230D1F429
:1006E00080917600809377008091750080937600EA
:1006F00090917B00892F80538A3008F08750209199
:100700007C00922F90539A3008F097508295807F0A
:10071000892B3FC0E43008F443C080917600809379
:1007200077008091750080937600E150E093780027
:10073000F0E0E558FF4F8081992787FD909596015D
:10074000281B390BC901E901CC0FDD1FC80FD91FC8
:10075000CE01805D8093750010828BE790E06FE2A0
:1007600070E01ED3892BD1F08BE790E06BE270E054
:1007700017D3892B21F4FE01EF5C8E2F0AC08BE783
:1007800090E066E270E00CD3892B31F49E012E5C80
:10079000822F8093750002C09092750010927800AD
:1007A000015009F0EBCE1092A401DF91CF911F917F
:1007B0000F91FF90EF90DF90CF90BF90AF909F9000
:1007C0008F900895ACE6B0E0FC0187E001900D92B7
:1007D0008150E1F781E00895DC01ECE6F0E087E08C
:1007E00001900D928150E1F787E0089585B782600E
:1007F00085BF8BB780648BBF8BE48093940180931B
:10080000BF018AE5809393018093BE0108951F93F1
:10081000DC01162F8091BE0184FF07C08091BF01CB
:1008200098E889278093BF0103C08AE58093BE01C1
:10083000912FE0ECF1E08D91819391501916DCF34A
:1008400080EC91E0612F60D11C5F1093BE011F917D
:1008500008951F93DC01162F8091930184FF07C038
:100860008091940198E889278093940103C08AE5D8
:1008700080939301912FE5E9F1E08D91819391505F
:100880001916DCF385E991E0612F3ED11C5F1093CE
:1008900093011F9108951F93CF93DF936091A4015B
:1008A000635067FDB2C08091A101CCE0D0E0C81BCD
:1008B000D109C855DE4F8091A001803118F4CE01D6
:1008C00041DE9DC08D3209F08AC0683009F097C0C2
:1008D00083EC809388018AE580936A0010928701F7
:1008E0008881807621F0CE011FDC282F65C09A8197
:1008F000109291018981882321F41092920122E0C3
:1009000054C0853019F49093A5014EC08630B1F5DE
:100910008B81813041F483EB90E09093A30180932D
:10092000A20122E127C0823021F4CE01E8DB282F8A
:1009300021C08330F1F4992341F48DE790E0909346
:10094000A3018093A20124E015C0913041F481E815
:1009500090E09093A3018093A20122E20BC0923019
:1009600041F483EA90E09093A3018093A20120E1F7
:1009700001C020E080E4809387011EC0883021F40C
:1009800021E087EA91E013C0893019F49093A70120
:100990000BC08A3011F421E008C08B3029F48BE4BD
:1009A000809394018093BF0120E081E991E09093CE
:1009B000A3018093A20109C02F3F39F4888187FDEC
:1009C0002E8180E88093870106C08F81882319F4E7
:1009D0008E81821708F0822F80936B0010C0809167
:1009E000870187FF0CC0CE01EDDE8F3F21F48EE141
:1009F00080936A0004C0882311F010926B008091EC
:100A0000A401181614F41092A40180916A0084FFC6
:100A100058C080916B008F3F09F453C0182F893064
:100A200008F018E0811B80936B008091880198E8A2
:100A3000892780938801112391F18091870187FF95
:100A400008C089E891E0612FC7DE182F893098F53A
:100A500026C02091A2013091A30186FF0DC0A9E814
:100A6000B1E080E090E0F901E80FF91FE491ED9327
:100A700001961817C1F708C0912FD901E9E8F1E0F4
:100A80008D9181939150E1F71150812F90E01F5F7C
:100A90000196820F931F9093A3018093A20189E88E
:100AA00091E0612F31D0612F6C5F6C3041F08FEF9E
:100AB00080936B0004C08FEF80936B006EE16093B6
:100AC0006A0094E180B38C7031F49150D9F71092A0
:100AD000A50110929F01DF91CF911F910895A82F3A
:100AE000B92F80E090E041E050EA60956F5F58F4E4
:100AF0002D9138EF82279795879510F084279527B9
:100B00003F5FC8F3F3CF0895EADF8D939D93089577
:100B1000CF93CFB7CF93C395839BE9F7839B09C04E
:100B2000839B07C0839B05C0839B03C0839B01C03D
:100B3000A6C0DF93C091A101DD27C855DE4F839B7E
:100B400002C0DF91EBCF2F930F931F9300B32FEFD2
:100B500003FB20F94F933F9310B34FEF012703FBA3
:100B600021F93BE031C04E7F012F10B3216028C036
:100B7000102F4D7F2260000000B329C04B7F2460FE
:100B8000012F000010B32BC010B3477F28602AC08C
:100B90004F7E00B320612CC04F7D10B320622FC068
:100BA0004F7B00B3206432C0422700B349934FEF1C
:100BB0000000102713FB20F910B31C70C9F1297F26
:100BC00091F2012703FB21F900B3237F89F2315011
:100BD00058F1102713FB22F910B3277E79F2012771
:100BE00003FB23F92F7C81F200B3102713FB24F9B8
:100BF0002F7971F200C010B3012703FB25F92F7381
:100C000059F200C000B3102713FB26F9223040F23E
:100C100000C010B3012703FB27F9243028F64F77D3
:100C2000206810B30000F9CF10E41ABF00271CC0E1
:100C30003B503195C31BD04010E41ABF0881033CE0
:100C400011F10B3401F120919F011981110F121341
:100C5000EDCF4A81441F093659F10D3211F0013EA2
:100C600029F74F7009F0042F0093A6013F914F918F
:100C70001F910F912F91DF91CAB7C6FD4CCFCF9135
:100C8000CFBFCF9118952091A601222379F310911F
:100C9000A4011123C1F53430C2F13093A401209393
:100CA000A0011091A1013BE0311B3093A1012DC0A7
:100CB0000091A40101303CF50AE54F7049F43091F0
:100CC0006A0034FD24C000936A00C8E8D1E023C064
:100CD000433049F03091930134FD19C000939301E2
:100CE000C4E9D1E018C03091BE0134FD10C00093BA
:100CF000BE01CFEBD1E00FC02795A8F45150A9F465
:100D0000220F0000F9CF4AE503C042ED01C0432F96
:100D1000C4E1D0E032E011B31C60939A11BB02B37E
:100D200020E41CE05F93012756E002BB279520F4E6
:100D3000515021F4220FF9CF012756E000003B5A11
:100D400002BBD0F2279528F4515029F4220F00005D
:100D5000F9CF012756E0279502BB20F4515021F42A
:100D6000220FF9CF012756E02991332302BB21F648
:100D7000037F1091A501110FC651D04002BB11F0A5
:100D800010939F0110E41ABF086011B3137F402F26
:100D9000437F5F9100C000C002BB11BB42BB66CF66
:100DA000FB01DC018D91059080190110D9F3990B9D
:060DB0000895F894FFCF46
:0C0DB600A12000000000020003005AFF12
:00000001FF
