:1000000058C04AC16FC06EC06DC06CC06BC06AC0C2
:1000100069C068C067C066C065C064C063C062C0B4
:1000200061C060C05FC00902430002010080320964
:100030000400000102020100052400100104240252
:1000400002052406000105240103010705830308B6
:1000500000FF09040100020A000000070501020870
:100060000000070581020800000403090422037749
:1000700000770077002E0072006500630075007243
:1000800000730069006F006E002E006A007000109F
:10009000035500530042002D00500049004F00124C
:1000A00001100102000008C016E105000101020074
:1000B000010011241FBECFEDCDBF10E0A0E6B0E0DF
:1000C000E8EFF7E002C005900D92A236B107D9F72C
:1000D00010E0A2E6B0E001C01D92A13BB107E1F73C
:1000E0008ED088C38DCFFC018381813049F48FE9A4
:1000F00090E090938A008093890080919F000895FA
:1001000086E290E090938A008093890083E40895CA
:10011000FC0180818076803229F48181813211F462
:100120008FEF089580E00895DC018FEF80938B00BE
:1001300030916A0020916D0040916C0090916B00AD
:100140007DE05AE08D91813250F086FD8F75E92F68
:10015000F0E0EA59FF4F80839F5F937042C0913077
:1001600061F5E42FF0E0809166008F3399F480818F
:10017000982F92959F709A3008F0995F905D9093B8
:1001800062008F708A3008F0895F805D8093630021
:1001900034E00EC08D3321F4F8942083789407C0A6
:1001A0008E3531F4F894808182278083789432E010
:1001B000709364005093650013C080916600982F7F
:1001C00090539A3008F0975020916700822F805307
:1001D0008A3008F087509295907F242F492F482B22
:1001E00090E0615009F0AECF30936A0020936D002B
:1001F00040936C0090936B0010928B000895CF9306
:10020000DF9383EF82BB8CE081BB90E003C0A895B5
:100210008150E9F7915011F080E0FACF11BA84D102
:100220007894C4E0D0E0A895D2D180917A0084FF80
:10023000FACF60916A006623B1F3CE01861B910963
:100240008E599F4FA3D110926A00EDCFFC0180E838
:10025000808385E28183128213821482158288E072
:10026000868387E00895A82FB92F80E090E041E0D1
:1002700050EA60956F5F58F42D9138EF822797957B
:10028000879510F0842795273F5FC8F3F3CF089533
:10029000EADF8D939D930895CF93CFB7CF93C39506
:1002A000839BE9F7839B09C0839B07C0839B05C0A1
:1002B000839B03C0839B01C0A6C0DF93C0918800CD
:1002C000DD27C157DF4F839B02C0DF91EBCF2F9318
:1002D0000F931F9300B32FEF03FB20F94F933F932E
:1002E00010B34FEF012703FB21F93BE031C04E7FF4
:1002F000012F10B3216028C0102F4D7F2260000015
:1003000000B329C04B7F2460012F000010B32BC025
:1003100010B3477F28602AC04F7E00B320612CC0F5
:100320004F7D10B320622FC04F7B00B3206432C0DA
:10033000422700B349934FEF0000102713FB20F929
:1003400010B31C70C9F1297F91F2012703FB21F939
:1003500000B3237F89F2315058F1102713FB22F9A3
:1003600010B3277E79F2012703FB23F92F7C81F25A
:1003700000B3102713FB24F92F7971F200C010B3DA
:10038000012703FB25F92F7359F200C000B3102792
:1003900013FB26F9223040F200C010B3012703FB03
:1003A00027F9243028F64F77206810B30000F9CFE2
:1003B00010E41ABF00271CC03B503195C31BD0402E
:1003C00010E41ABF0881033C11F10B3401F12091B4
:1003D00086001981110F1213EDCF4A81441F09368F
:1003E00059F10D3211F0013E29F74F7009F0042F39
:1003F00000938D003F914F911F910F912F91DF91AD
:10040000CAB7C6FD4CCFCF91CFBFCF9118952091E1
:100410008D00222379F310918B001123C1F5343024
:10042000C2F130938B0020938700109188003BE04D
:10043000311B309388002DC000918B0001303CF5BA
:100440000AE54F7049F43091600034FD24C00093F8
:100450006000CFE6D0E023C0433049F030917A000D
:1004600034FD19C000937A00CBE7D0E018C030917A
:10047000A50034FD10C00093A500C6EAD0E00FC06F
:100480002795A8F45150A9F4220F0000F9CF4AE5AE
:1004900003C042ED01C0432FC4E1D0E032E011B30C
:1004A0001C60939A11BB02B320E41CE05F93012708
:1004B00056E002BB279520F4515021F4220FF9CFCA
:1004C000012756E000003B5A02BBD0F2279528F4E2
:1004D000515029F4220F0000F9CF012756E027954B
:1004E00002BB20F4515021F4220FF9CF012756E02E
:1004F0002991332302BB21F6037F10918C00110F49
:10050000C651D04002BB11F01093860010E41ABF10
:10051000086011B3137F402F437F5F9100C000C07C
:1005200002BB11BB42BB66CF85B7826085BF8BB76C
:1005300080648BBF8BE480937B008093A6008AE568
:1005400080937A008093A50008951F93DC01162FF5
:100550008091A50084FF07C08091A60098E88927B4
:100560008093A60003C08AE58093A500912FE7EA57
:10057000F0E08D9181939150E1F787EA90E0612F4F
:1005800087DE1C5F1093A5001F9108951F93DC0167
:10059000162F80917A0084FF07C080917B0098E835
:1005A000892780937B0003C08AE580937A00912F8E
:1005B000ECE7F0E08D9181939150E1F78CE790E0CA
:1005C000612F66DE1C5F10937A001F9108951F93C0
:1005D000CF93DF9360918B00635067FDA1C0809142
:1005E0008800CCE0D0E0C81BD109C157DF4F809113
:1005F0008700803118F4CE0197DD8CC08D3209F070
:1006000089C0683009F086C083EC80936F008AE56A
:100610008093600010926E008881807621F0CE0178
:1006200077DD282F65C09A81109278008981882310
:1006300021F41092790022E054C0853019F490938F
:100640008C004EC08630B1F58B81813041F48FE94A
:1006500090E090938A008093890022E127C0823045
:1006600021F4CE0140DD282F21C08330F1F49923FD
:1006700041F489E690E090938A008093890024E019
:1006800015C0913041F48DE690E090938A008093FC
:10069000890022E20BC0923041F48FE890E0909301
:1006A0008A008093890020E101C020E080E48093EB
:1006B0006E001EC0883021F421E08EE890E013C067
:1006C000893019F490938E000BC08A3011F421E028
:1006D00008C08B3029F48BE480937B008093A600C4
:1006E00020E088E790E090938A008093890009C019
:1006F0002F3F39F4888187FD2E8180E880936E003A
:1007000006C08F81882319F48E81821708F0822F0A
:100710008093610080918B00181614F410928B0066
:100720008091600084FF58C0809161008F3F09F480
:1007300053C0182F893008F018E0811B80936100A6
:1007400080916F0098E8892780936F00112391F1C1
:1007500080916E0087FF08C080E790E0612F76DD12
:10076000182F893098F526C02091890030918A0091
:1007700086FF0DC0A0E7B0E080E090E0F901E80F4F
:10078000F91FE491ED9301961817C1F708C0912F56
:10079000D901E0E7F0E08D9181939150E1F711509C
:1007A000812F90E01F5F0196820F931F90938A0024
:1007B0008093890080E790E0612F6ADD612F6C5F94
:1007C0006C3041F08FEF8093610004C08FEF809315
:1007D00061006EE16093600094E180B38C7031F44D
:1007E0009150D9F710928C0010928600DF91CF9132
:0807F0001F910895F894FFCF5A
:0207F8005AFFA6
:00000001FF
