:100000005EC0ADC06FC5BCC0CCC0DCC0ECC0FCC025
:100010000CC11CC12CC13CC14CC15CC16CC1504F56
:100020005254004444520050494E006364632D69A9
:100030006F00090243000201008032090400000140
:100040000202010005240010010424020205240616
:1000500000010524010301070583030800FF0904CB
:100060000100020A00000007050102080000070560
:100070008102080000040309042203770077007757
:10008000002E007200650063007500720073006945
:10009000006F006E002E006A0070001003550053C0
:1000A0000042002D00500049004F001201100102D3
:1000B000000008C016E10500010102000100112442
:1000C0001FBECFE5D1E0DEBFCDBF10E0A0E6B0E0BF
:1000D000E8E7FEE002C005900D92AC36B107D9F713
:1000E00011E0ACE6B0E001C01D92AB34B107E1F71E
:1000F00013D1C0C685CFFC018381813049F48BEADE
:1001000090E090932401809323018091AB000895A7
:1001100082E390E0909324018093230183E4089587
:10012000FC012081822F80768032B9F49181892F61
:100130008052823010F48FEF0895923239F480911A
:100140007400882319F482E08093740027FD05C0B1
:1001500081E08093730080E0089580E008951F920D
:100160000F920FB60F9211248F9380910301846038
:10017000809303018F910F900FBE0F901F901895E1
:100180001F920F920FB60F9211248F93809103014B
:100190008061809303018F910F900FBE0F901F908D
:1001A00018951F920F920FB60F9211248F93809182
:1001B00003018062809303018F910F900FBE0F9017
:1001C0001F9018951F920F920FB60F9211248F93C4
:1001D000809103018064809303018F910F900FBE83
:1001E0000F901F9018951F920F920FB60F92112427
:1001F0008F93809103018068809303018F910F900A
:100200000FBE0F901F9018951F920F920FB60F926E
:1002100011248F93809104018160809304018F9158
:100220000F900FBE0F901F9018951F920F920FB650
:100230000F9211248F9380910401826080930401B6
:100240008F910F900FBE0F901F9018951F920F92D5
:100250000FB60F9211248F938091040184608093D4
:1002600004018F910F900FBE0F901F9018951F9251
:100270000F920FB60F9211248F9380910401886022
:10028000809304018F910F900FBE0F901F901895CF
:100290001F920F920FB60F9211248F938091040139
:1002A0008061809304018F910F900FBE0F901F907B
:1002B00018951F920F920FB60F9211248F93809171
:1002C00004018062809304018F910F900FBE0F9004
:1002D0001F9018951F920F920FB60F9211248F93B3
:1002E000809104018064809304018F910F900FBE70
:1002F0000F901F9018951F920F920FB60F92112416
:100300008F93809104018068809304018F910F90F6
:100310000FBE0F901F901895CF92DF92EF92FF9231
:100320000F931F93CF93DF932EE088E190E00FB6F9
:10033000F894A89581BD0FBE21BD87EE88BB88E1EA
:1003400087BB20E043EB51EFA895CA010197F1F775
:100350002F5F2431C9F717BA13D21092740010928C
:100360007300109278001092790010927A007894BD
:10037000DD24D39420E8C22EC1E0D0E09CE5E92E34
:100380008DE0F82E0AE0A8954ED28091140184FFEA
:100390002FC02091790090917A00291729F480913B
:1003A0007300882319F424C0291710F0622F01C0AC
:1003B0006C2D691B162F693008F018E0892F90E02A
:1003C0008D579F4F612F0DD290917A00910F9F779B
:1003D00090937A00183019F080E090E007C020E098
:1003E00080917900891321E02D25822F809373005D
:1003F00042E0842F869586958695E82FF0E0ED5FA4
:10040000FE4F5081552331F4482F440F440F440FC1
:10041000495F4CC0242F30E027703070852F90E06A
:10042000022E02C0959587950A94E2F780FF3EC0A0
:10043000CE0102C0880F991F2A95E2F78095852387
:10044000808380917900E82FF0E0ED57FF4FE08244
:100450008F5F8F77942F92959F709A3008F0995FF5
:10046000E82FF0E0ED57FF4F905D90838F5F8F771F
:10047000942F9F709A3008F0995FE82FF0E0ED57C5
:10048000FF4F905D90838F5F8F77E82FF0E0ED57FF
:10049000FF4FF0828F5F8F77E82FF0E0ED57FF4F2F
:1004A00000838F5F8F778093790004C04F5F403166
:1004B00008F49FCF90917400992309F464CF809140
:1004C0003F0184FF60CF923021F480E690E068E045
:1004D00003C088E690E062E062D1809174008150B0
:1004E0008093740050CF9F92AF92BF92CF92DF92D1
:1004F000EF92FF920F931F93CF93DF93EC01F62EB1
:100500008FEF8093250174E4C72ED12C60E2962EE4
:100510005DE0E52E4AE0B42E31E2A32E99919132AE
:100520008CF0892F81568A3108F49052809178009E
:10053000E82FF0E0E558FF4F90838F5F877080933E
:100540007800F9C0E0917800EE2309F4F4C0E130BE
:1005500009F093C080917500E82FF0E080917B0056
:100560008F3349F1803454F4863209F450C08D330E
:1005700009F43EC0843209F062C040C08E3509F4EF
:1005800056C08C3709F44BC0803409F058C0209114
:1005900079008BE290E007C0E22FF0E0ED57FF4FCB
:1005A00030832F5F2F77FC01019634913323A1F71D
:1005B000209379004FC02081922F92959F709A309E
:1005C00008F0995F80917900E82FF0E0ED57FF4F38
:1005D000905D90838F5F8F77922F9F709A3008F095
:1005E000995FE82FF0E0ED57FF4F905D90832EC0AC
:1005F000F89480917600808378942CC0F894809150
:1006000076008083809177008083789423C0F8946B
:100610008081909176008923808378941BC0F89420
:10062000808190917600892B8083789413C0F89410
:100630008081909176008927808378940BC0809187
:100640007900E82FF0E0ED57FF4FA0828F5F8F77A2
:100650008093790080917900E82FF0E0ED57FF4F0B
:10066000E0828F5F8F77E82FF0E0ED57FF4FB08289
:100670008F5F8F77809379005CC0E230E1F48091E6
:10068000760080937700809175008093760090913A
:100690007B00892F80538A3008F0875020917C009E
:1006A000922F90539A3008F097508295807F892B33
:1006B000809375003EC0E430F0F180917600809325
:1006C00077008091750080937600E150E093780088
:1006D000F0E0E558FF4F8081992787FD90959601BE
:1006E000281B390BC90163E070E0B2D3182F082F23
:1006F000005D0093750010828BE790E067E270E088
:100700009ED3892BB1F08BE790E063E270E097D342
:10071000892B11F41F5C08C08BE790E06EE170E05C
:100720008ED3892B21F41E5C1093750002C0909229
:10073000750010927800FA9409F0F0CE109225011D
:10074000DF91CF911F910F91FF90EF90DF90CF90AD
:10075000BF90AF909F900895ACE6B0E0FC0187E0B9
:1007600001900D928150E1F781E00895DC01ECE603
:10077000F0E087E001900D928150E1F787E0089565
:10078000AC9A8BB780628BBF8BE48093150180930A
:1007900040018AE58093140180933F0108951F93DF
:1007A000DC01162F80913F0184FF07C0809140013A
:1007B00098E889278093400103C08AE580933F0130
:1007C000912FE1E4F1E08D91819391501916DCF3C2
:1007D00081E491E0612F6FD11C5F10933F011F9165
:1007E00008951F93DC01162F8091140184FF07C028
:1007F0008091150198E889278093150103C08AE547
:1008000080931401912FE6E1F1E08D918193915055
:100810001916DCF386E191E0612F4DD11C5F109336
:1008200014011F9108951F93CF93DF9360912501C9
:10083000635067FDB2C080912201CCE0D0E0C81BBC
:10084000D109C75DDE4F80912101803118F4CE01BE
:100850004ADE9DC08D3209F08AC0683009F097C029
:1008600083EC809309018AE580936A001092080165
:100870008881807621F0CE0153DC282F65C09A81D3
:10088000109212018981882321F41092130122E031
:1008900054C0853019F4909326014EC08630B1F5CE
:1008A0008B81813041F48BEA90E090932401809316
:1008B000230122E127C0823021F4CE011CDC282F45
:1008C00021C08330F1F4992341F485E790E09093BF
:1008D00024018093230124E015C0913041F489E77D
:1008E00090E0909324018093230122E20BC0923088
:1008F00041F48BE990E0909324018093230120E15F
:1009000001C020E080E4809308011EC0883021F4FB
:1009100021E088E291E013C0893019F49093280116
:100920000BC08A3011F421E008C08B3029F48BE42D
:10093000809315018093400120E082E191E0909343
:1009400024018093230109C02F3F39F4888187FD5A
:100950002E8180E88093080106C08F81882319F4D6
:100960008E81821708F0822F80936B0010C08091D7
:10097000080187FF0CC0CE01EFDE8F3F21F48EE12E
:1009800080936A0004C0882311F010926B0080915C
:100990002501181614F41092250180916A0084FF35
:1009A00058C080916B008F3F09F453C0182F8930D5
:1009B00008F018E0811B80936B008091090198E892
:1009C000892780930901112391F18091080187FF04
:1009D00008C08AE091E0612FC9DE182F893098F5B0
:1009E00026C0209123013091240186FF0DC0AAE08A
:1009F000B1E080E090E0F901E80FF91FE491ED9398
:100A000001961817C1F708C0912FD901EAE0F1E06B
:100A10008D9181939150E1F71150812F90E01F5FEC
:100A20000196820F931F90932401809323018AE003
:100A300091E0612F40D0612F6C5F6C3041F08FEFFF
:100A400080936B0004C08FEF80936B006EE1609326
:100A50006A0094E186B3887131F49150D9F710920D
:100A600026011092200110E0992309F411E08091F1
:100A70000701811739F0112319F4F8949FD1789464
:100A800010930701DF91CF911F910895A82FB92FDF
:100A900080E090E041E050EA60956F5F58F42D915E
:100AA00038EF82279795879510F0842795273F5F29
:100AB000C8F3F3CF0895EADF8D939D930895A6E0E0
:100AC00088279927AA9569F00197E1F3B399FCCF9C
:100AD000B39BFECF81E09927A6B3019611F0A871D0
:100AE000D9F70895CF93CFB7CF93C395B39BE9F7C9
:100AF000B39B0BC0B39B09C0B39B07C0B39B05C09E
:100B0000B39B03C0B39B01C0D8C00F92DF93C091C9
:100B10002201DD27C75DDE4F012EB39B03C0DF91AD
:100B20000F90E6CF2F930F931F934F932FEF4F6F9D
:100B300006B303FB20F95F933F9350E03BE065C0B1
:100B400016B30126502953FDC89556B3012703FB60
:100B500025F92F7306B3B1F05027102713FB26F9A0
:100B600006B22230F0F000C016B3012703FB27F9CC
:100B70000126502906B22430E8F54F77206816B3D5
:100B80000000F6CF50274F7D206206B2102F0000E4
:100B900000C006B300265029102713FB26F906B221
:100BA000E2CF4F7B06B3206400C0DACF0126502984
:100BB000187106B269F14E7F2160012F16B328C06B
:100BC000002650294D7F06B22260102F29C0012631
:100BD00050294B7F06B22460012F2DC016B3012689
:100BE0005029477F2860000006B22EC04F7E06B312
:100BF000206130C0422706B34993002650291027B0
:100C000006B24FEF13FB20F9297F16B379F2187162
:100C100059F10126502906B2012703FB21F9237F50
:100C200006B371F2002650293150D0F006B21027D9
:100C300013FB22F9277E16B351F201265029012712
:100C400003FB06B223F92F7C49F2000006B31027FC
:100C500013FB24F90026502906B22F7939F270CF00
:100C600010E21ABF00271CC03B503195C31BD04077
:100C700010E21ABF0881033C21F10B3411F12091DD
:100C800020011981110F1213EDCF4A81441F09363B
:100C900069F10D3211F0013E29F74F7009F0042F70
:100CA000009327013F915F914F911F910F912F91D9
:100CB000DF910F90CAB7C5FD18CFCF91CFBFCF91AD
:100CC000189520912701222369F310912501112302
:100CD000D1F53430D2F130932501209321011091C8
:100CE00022013BE0311B309322012FC000912501EE
:100CF00001304CF50AE54F7049F430916A0034FD3B
:100D000025C000936A00C9E0D1E024C0433049F017
:100D10003091140134FD1AC000931401C5E1D1E0F3
:100D200019C030913F0134FD11C000933F01C0E470
:100D3000D1E010C0052710E000C021C0052710E059
:100D4000C89508BB14C03AE501C032ED032EC0E0DF
:100D5000D0E032E017B31861C39A08B317BB58E16B
:100D600020E84FEF20FF052708BB279517951C3F6C
:100D700028F700004552B0F720FF0527279508BB4C
:100D800017951C3FB8F629913A9561F7077E1091A7
:100D90002601110F08BBC250D04011F01093200162
:100DA00010E21ABF086017B3177E402F477E54E049
:100DB0005A95F1F708BB17BB48BB74CFEF92FF926F
:100DC0000F931F93CF93DF9380E8F82E00E0C0E0ED
:100DD000D0E0102F1F0D11BF72DE9C0189E024337B
:100DE00038070CF0102FF6942196C830D10511F079
:100DF000012FEFCF115011BF1F5F7901C12FD0E03C
:100E0000219610C05CDE8453994097FF03C09095F3
:100E100081959F4F8E159F0514F411B77C0181B702
:100E20008F5F81BF81B790E0C817D9075CF711BF0A
:100E3000DF91CF911F910F91FF90EF900895FB01EB
:100E4000DC018D91059080190110D9F3990B08955B
:100E50005527002480FF02C0060E571F660F771F1C
:100E60006115710521F096958795009799F7952F53
:080E7000802D0895F894FFCFD6
:0C0E7800A12000000000020003005AFF4F
:00000001FF
